S00D0000626C696E6B2E7372656307
S11300000C9434000C9451000C9451000C94510045
S11300100C9451000C9451000C9451000C94510018
S11300200C9451000C9451000C9451000C94510008
S11300300C9451000C9451000C9451000C945100F8
S11300400C9451000C9451000C9451000C945100E8
S11300500C9451000C94A2000C9451000C94510087
S11300600C9451000C94510011241FBECFEFD4E026
S1130070DEBFCDBF11E0A0E0B1E0E2E1FBE002C0F1
S113008005900D92A830B107D9F711E0A8E0B1E0CE
S113009001C01D92AA30B107E1F70E9461000C94DF
S11300A088050C9400008FE384B985B98FEF8AB971
S11300B08BB980E480937C008FEC80937A007894F1
S11300C00895CFEFD4E0DEBFCDBF0E945300FFCF31
S11300D00F931F939C01220F331FC901880F991F8F
S11300E0880F991F880F991F821B930B6FEF70E085
S11300F00E94D6048B01B801882777FD8095982F3C
S11301000E945C0217FF06C020E030E040E857E49C
S11301100E942F0220E030E040E05FE30E942F02C3
S11301200E9421050E94C5022FEF3FE302C0220F67
S1130130331F6A95E2F72BB9232F332725B91F9173
S11301400F9108951F920F920FB60F9211242F93BF
S11301503F934F935F936F937F938F939F93AF934B
S1130160BF93EF93FF938091780090917900865923
S113017090400E946800EAE7F0E080818064808318
S1130180FF91EF91BF91AF919F918F917F916F916B
S11301905F914F913F912F910F900FBE0F901F9041
S11301A01895A0E0B0E0E7EDF0E00C94EE04FC015B
S11301B06A019081923008F41BC1DB018C9182307A
S11301C080F0943061F4843009F012C19181EB0124
S11301D08981981709F40CC1E0E0F1E009C1843089
S11301E011F4FB0105C1823091F4923009F000C191
S11301F0EA01DF0188E00D9009928150E1F78181E5
S1130200FB0191818923E6018983F601F1C09230D3
S113021041F362807380EB018A809B80E480F580E7
S1130220068117812C813D814E815F815301A8187D
S1130230B908C501B7FCABC080970CF457C086144D
S113024097040CF4BEC03401EE24FF24870191818D
S1130250FB018181981709F4A6C0992309F49CC075
S11302602E193F09400B510B57FDB0C0E60119820E
S11302707B826A82F6012483358346835783E601B1
S11302802C813D814E815F8179018A01DA01C901A6
S11302900197A109B1098F5F9F4FAF4FBF43F8F496
S11302A0E6016A817B81A8019701220F331F441F55
S11302B0551F6150704079018A01DA01C901019723
S11302C0A109B1098F5F9F4FAF4FBF4360F3E601B0
S11302D07B836A83F601248335834683578383E0D3
S11302E0D6018C9357FD39C0F60182C08614970459
S11302F0B4F4C0E0D0E0DA01C90181709070A0705C
S1130300B0705695479537952795282B392B4A2B4E
S11303105B2B2196AC16BD0671F78A0C9B1C6814E6
S113032079040CF094CFC0E0D0E05401A618B708CB
S1130330D801C70181709070A070B07016950795B0
S1130340F794E794E82AF92A0A2B1B2B2196AC167A
S1130350BD0671F76A0C7B1C7ACFDA01C901B69528
S1130360A795979587952170307040705070282B11
S1130370392B4A2B5B2BE6012C833D834E835F8311
S11303808A819B8101969B838A83F60131C08827E9
S113039099278A199B0950CFE21AF30A040B150B0B
S11303A0A801970161CFE60199837B826A822E0DB1
S11303B03F1D401F511FF601248335834683578315
S11303C08ECF20E030E040E050E041CF81E0E60114
S11303D089837B826A8250954095309521953F4F61
S11303E04F4F5F4FF601248335834683578347CFAE
S11303F0CF01EEE0CDB7DEB70C940A05A0E2B0E081
S1130400E4E0F2E00C94F60469837A838B839C83A2
S11304102D833E834F83588789E0E82EF12CEC0E20
S1130420FD1EB701CE0101960E9437048E010F5EB6
S11304301F4FB801CE0105960E9437048A8991E0C6
S113044089278A8BAE01475E5F4FB801C7010E94BE
S1130450D1000E941503E6E0A0960C941205A0E2D8
S1130460B0E0E5E3F2E00C94F60469837A838B83CD
S11304709C832D833E834F83588799E0E92EF12C8A
S1130480EC0EFD1EB701CE0101960E9437048E01C9
S11304900F5E1F4FB801CE0105960E943704AE01CE
S11304A0475E5F4FB801C7010E94D1000E94150347
S11304B0E6E0A0960C941205A8E0B0E0E2E6F2E0D3
S11304C00C94F9049B01AC0183E089831A8257FDE3
S11304D051C0211531054105510539F482E0898364
S11304E0CE0101960E9415034CC0EEE1F0E0FC83BE
S11304F0EB838A818823C9F1203010E0310710E0B2
S1130500410710E85107C9F188279927DC01821BAC
S1130510930BA40BB50B8D839E83AF83B8872D817A
S11305203E814F815885203080E0380780E04807BD
S113053080E45807A8F6EB81FC81DA01C901880F31
S1130540991FAA1FBB1F31979C01AD01803010E099
S1130550910710E0A10710E4B10778F3FC83EB8363
S11305608D839E83AF83B887BBCF2D833E834F8318
S11305705887D5CF81E08A83ACCF60E070E080E01B
S11305809FECE3E028960C941505ACE0B0E0EBECAE
S1130590F2E00C94FA0469837A838B839C83BE0112
S11305A06B5F7F4FCE0101960E9437048D818230AC
S11305B061F0823050F0843069F48E81882359F5DB
S11305C02FEF3FEF4FEF5FE72AC020E030E040E03D
S11305D050E025C02F81388537FDF7CF2F31310505
S11305E064F78EE190E0821B930B29853A854B8555
S11305F05C8504C056954795379527958A95D2F71B
S11306008E81882361F050954095309521953F4F18
S11306104F4F5F4F04C020E030E040E050E8CA0193
S1130620B901E2E02C960C9416054F925F926F92FA
S11306307F928F929F92AF92BF92DF92EF92FF923E
S11306400F931F9320E030E040E050E0FC01E48091
S1130650F58006811781D1808081823038F4D801F9
S1130660C701A061AF77B0706FEFD9C0843009F4CF
S11306706EC0823009F471C0E114F1040105110562
S113068009F46BC0828193816FEF823896070CF076
S11306906AC062E87FEF681B790B6A3171050CF060
S11306A080C047015801062E04C0B694A7949794BD
S11306B087940A94D2F744245524320181E090E0CF
S11306C0A0E0B0E004C0880F991FAA1FBB1F6A9561
S11306D0D2F70197A109B109E822F9220A231B23C1
S11306E0E114F1040105110529F061E0462E512CB5
S11306F0612C712C85017401E428F5280629172939
S1130700D801C7018F779070A070B07080349105C4
S1130710A105B10509F457C0D801C701CF96A11DA1
S1130720B11D60E070E08030E0E09E07E0E0AE07DD
S1130730E0E4BE0710F061E070E027E0B695A7950D
S1130740979587952A95D1F7AF77B07068C080E008
S113075090E0A0E0B0E06FEF62C080E090E0A0E045
S1130760B0E060E05CC0803891058CF7BC01615852
S11307707F4FD801C7018F779070A070B07080341C
S11307809105A105B105A1F08FE390E0A0E0B0E0F0
S1130790E80EF91E0A1F1B1F17FD28C0D801C70148
S11307A0CCCF60E070E080E090E0A0E0B0E0CCCF9F
S11307B0E7FEF2CF80E490E0A0E0B0E0E80EF91E9E
S11307C00A1F1B1FE9CFE7FC18C080E090E060E03F
S11307D0E61660E0F60660E0060760E4160710F02F
S11307E081E090E0BC01D801C701A7CF1695079519
S11307F0F794E7946F5F7F4FD1CFD801C701805C36
S11308009F4FAF4FBF4F60E070E08030E0E09E0745
S1130810E0E0AE07E0E4BE0708F48FCF8CCF282FCA
S1130820392F9A2F9F77842F8078892B962F97952D
S1130830992797958F77482F492B6695852F807830
S1130840862BD794DD24D7948F77582F5D29CA013E
S1130850B9011F910F91FF90EF90DF90BF90AF907F
S11308609F908F907F906F905F904F900895FC01C0
S1130870DB01208131819281492F4F7750E0991F0C
S11308809927991F8381682F660F692B881F8827F2
S1130890881FFD018183662309F049C021153105B4
S11308A04105510509F470C082E89FEFFD0193836F
S11308B08283220F331F441F551F220F331F441FEF
S11308C0551F220F331F441F551F220F331F441F70
S11308D0551F220F331F441F551F220F331F441F60
S11308E0551F220F331F441F551F83E08C93203064
S11308F0F0E03F07F0E04F07F0E45F0790F482E890
S11309009FEF220F331F441F551F0197203060E0D3
S1130910360760E0460760E4560798F3FD019383C9
S11309208283FD01248335834683578308956F3F73
S113093071F1862F99278F579040FD01938382830D
S113094083E08C93220F331F441F551F220F331F44
S1130950441F551F220F331F441F551F220F331FDF
S1130960441F551F220F331F441F551F220F331FCF
S1130970441F551F220F331F441F551F50642483E7
S1130980358346835783089582E08C930895211517
S113099031054105510519F484E08C93089544FD13
S11309A002C01C92BECF81E08C93BBCFAA1BBB1BA1
S11309B051E107C0AA1FBB1FA617B70710F0A61B5B
S11309C0B70B881F991F5A95A9F780959095BC017C
S11309D0CD0108952F923F924F925F926F927F9232
S11309E08F929F92AF92BF92CF92DF92EF92FF923B
S11309F00F931F93CF93DF93CDB7DEB7CA1BDB0BE7
S1130A000FB6F894DEBF0FBECDBF09942A8839888B
S1130A1048885F846E847D848C849B84AA84B98492
S1130A20C884DF80EE80FD800C811B81AA81B9819E
S1130A30CE0FD11D0FB6F894DEBF0FBECDBFED01B2
S1130A4008954FD09F3760F40EF05AC09FEB80E8B2
S1130A50772766270895869577956795B11D9395B1
S1130A609639C8F32EF4BB2319F06F5F7F4F8F4F75
S1130A70BB2705C09A95BB0F661F771F881F1124DB
S1130A809923A1F08823B2F79F3F59F0BB0F48F494
S1130A9021F4002011F460FF04C06F5F7F4F8F4F7B
S1130AA09F4F881F9795879597F9089529C0052E1C
S1130AB0092607FA440F551F5F3F79F0AA27A517A7
S1130AC008F051E04795880F991F9F3F31F0BB27ED
S1130AD0B91708F091E0879508959F919F9111248B
S1130AE014C097FB880F991F9F3F31F0BB27B9179C
S1130AF008F091E0879508959F919F91112405C076
S1130B00662777278827992708959FEF80EC089513
S1050B10FFCF11
S10B0B120000000000000000D7
S9030000FC
