:100000000C9434000C9451000C9451000C94510049
:100010000C9451000C9451000C9451000C9451001C
:100020000C9451000C9451000C9451000C9451000C
:100030000C9451000C9451000C9451000C945100FC
:100040000C9451000C9451000C9451000C945100EC
:100050000C9451000C9451000C9451000C945100DC
:100060000C9451000C94510011241FBECFEFD4E02A
:10007000DEBFCDBF11E0A0E0B1E0E6E4F2E002C0F7
:1000800005900D92A031B107D9F711E0A0E1B1E0E0
:1000900001C01D92A031B107E1F70E94FF000C944E
:1000A00022010C94000095B121E030E002C0220F43
:1000B000331F8A95E2F72095922395B9089595B15B
:1000C00021E030E002C0220F331F8A95E2F7922B25
:1000D00095B908950F931F93082F80E00E94530055
:1000E000802F807F8BB9299A1AE0812F8A95F1F7AA
:1000F00081E00E945300812F8A95F1F7299A1A9581
:10010000F1F70295007F0BB981E00E9453008FEF59
:100110008BB980EE9EE20197F1F71F910F91089540
:100120000F931F93082F289A807F8BB9299A1AE082
:10013000812F8A95F1F781E00E945300812F8A95E3
:10014000F1F7299A1A95F1F70295007F0BB981E032
:100150000E94530080E00E9453008FEF8BB980EA29
:100160009FE00197F1F71F910F91089581E00E94A0
:100170006A0008950E946A0008958CE00E946A0057
:10018000089588E00E946A00089582E00E946A0053
:1001900008958DEB0E946A00089580E10E946A0034
:1001A000089584E10E946A0008958FEF85B984B9AB
:1001B00080EF8BB98AB980E090E00197F1F780E297
:1001C0000E946A0088E20E946A000E94C1000E94A8
:1001D000BD000E94B60086E00E94BA000895CF9349
:1001E000DF93EC0103C00E94900021968881882350
:1001F000D1F7DF91CF9108950E9490000895CFEF3D
:10020000D4E0DEBFCDBF0E94D500C0E0D1E0888140
:100210000E94FC0020E030E0E0E0F0E0CF01019738
:10022000F1F72F5F3F4F22333105C1F7219681E06F
:10023000C031D80761F70E94B60080E29EE40197C2
:06024000F1F7E3CFFFCF50
:1002460048656C6C6F20576F726C642120202020EB
:00000001FF
