:10000000E3C3FDC355C5FBC3FAC3F9C3F8C3F7C3C4
:10001000F6C3F5C3F4C3F3C3F2C3F1C3F0C3EFC334
:10002000EEC3EDC3ECC31C413242214323442445BB
:100030002B463447334843493B4A424B4B4C3A4D9D
:10004000314E444F4D5015512D521B532C543C559D
:100050002A561D57225835591A5A451016111E1284
:10006000261325142E1536163D173E184619701006
:10007000691172127A136B14731574166C17751854
:100080007D194E0D551D5D3C2900543B5B3D4C1BBD
:100090005207410C490E4A0F710E1C2132222123B6
:1000A000232424252B263427332843293B2A422B7B
:1000B0004B2C3A2D312E442F4D3015312D321B3320
:1000C0002C343C352A361D37223835391A3A450941
:1000D00016011E20260325042E05363E3D063E0A47
:1000E00046084E3F4E3F550B5D5B29002900290015
:1000F0004C1A2900411C491E4A1F710E70106911CB
:1001000072127A136B14731574166C1775197D1AA5
:100110000000000000000000002F000000000700A9
:10012000070000147F147F1400242A7F2A12006223
:1001300064081323003649552250000005030000CF
:1001400000001C224100000041221C000014083E57
:1001500008140008083E0808000000A0600000081D
:100160000808080800006060000000201008040271
:10017000003E5149453E0000427F4000004261512F
:100180004946002141454B31001814127F100027C9
:1001900045454539003C4A4949300001710905038C
:1001A00000364949493600064949291E00003636BD
:1001B0000000000056360000000814224100001420
:1001C00014141414000041221408000201510906FD
:1001D00000324959513E007C1211127C007F49497E
:1001E0004936003E41414122007F4141221C007FAF
:1001F00049494941007F09090901003E4149497ABD
:10020000007F0808087F0000417F41000020404136
:100210003F01007F08142241007F40404040007FA2
:10022000020C027F007F0408107F003E4141413EE6
:10023000007F09090906003E4151215E007F09192E
:1002400029460046494949310001017F0101003F2B
:100250004040403F001F2040201F003F4038403FAB
:10026000006314081463000708700807006151490F
:10027000454300007F41410000552A552A550000A2
:1002800041417F0000040201020400404040404020
:10029000000001020400002054545478007F4844B8
:1002A000443800384444442000384444487F0038EF
:1002B0005454541800087E0901020018A4A4A47C18
:1002C000007F080404780000447D400000408084E2
:1002D0007D00007F102844000000417F4000007C2A
:1002E00004180478007C0804047800384444443836
:1002F00000FC242424180018242418FC007C080482
:10030000040800485454542000043F444020003C5A
:100310004040207C001C2040201C003C4030403CE1
:10032000004428102844001CA0A0A07C0044645471
:100330004C4414141414141400E010080810E000C5
:10034000000F102020100F00001010F80000000017
:100350000020203F2020000000700808088870005E
:1003600000302824222130000030088888483000DE
:100370000018202020110E000000C02010F80000FE
:1003800000070424243F240000F808888808080097
:100390000019212020110E0000E0108888180000AC
:1003A000000F112020110E0000380808C83808007E
:1003B0000000003F000000000070880808887000FE
:1003C000001C222121221C0000E010080810E0007F
:1003D0000000312222110F00000080808080000088
:1003E0000019242222223F2008F80080800000000B
:1003F000003F112020110E000000008080800000CE
:10040000000E112020201100000000808088F800DC
:10041000000E112020103F2000008080808000000E
:10042000001F222222221300008080F08888881872
:100430000020203F2020000000008080808080007D
:10044000006B94949493600008F800808080000012
:10045000203F210000203F200080989800000000ED
:100460000020203F2020000000000080989800001D
:1004700000C08080807F000008F80000808080003D
:10048000203F24022D302000000808F80000000062
:100490000020203F2020000080808080808080001D
:1004A000203F20003F20003F8080008080800000AF
:1004B000203F210000203F2000008080808000003D
:1004C000001F202020201F0080800080800000006E
:1004D00080FFA12020110E0000000080808080009D
:1004E000000E112020A0FF8080808000808080008E
:1004F00020203F21200001000000808080808000BB
:100500000033242424241900008080E0808000002F
:100510000000001F2020000080800000008080007C
:10052000001F202020103F208080800000808080DD
:1005300000010E300806010080800080008080806D
:100540000F300C030C300F00008080008080800092
:100550000020312E0E3120008080800000808080BD
:1005600080818E701806010000808080808080006D
:100570000021302C2221300000000000000000008B
:1005800000010101010101014040404040404000A4
:100590000404040404040400000C30C00000000043
:1005A000000000010638C00000000000000000004C
:1005B0000000000000000000000000FE0202020037
:1005C0000000007F4040400000020202FE000000E8
:1005D000004040407F00000000000080000000005C
:1005E000000080600000000010160E0000000000F7
:1005F00000000000000000000000000000000000FB
:1006000080B070000000000000000000000000004A
:10061000003030000000000000000000806018047E
:10062000006018060100000040424CC40022AAAA43
:10063000AABFAAAAAA2220000000007F2010FF0A59
:100640000A0A4A8A7F000000080808FF8848929238
:100650005212FE11919190000242817F00007F248E
:1006600024203F2024247F0000000000000000FE22
:100670004040404040000000004040404040407F3B
:100680004040404040604000080808FF8868242C33
:10069000B42526342C2420000242817F02828A4E17
:1006A0005332122E42C202000000FC04040404046F
:1006B00004040404FC00000000003F0808080808C7
:1006C000080808083F0000004030EF28284464DC98
:1006D0001054FF54547C100001017F215122140F4B
:1006E00014253F45454544002020A07C24266DB4B8
:1006F000242424FC202020004442417C44447C45A6
:10070000447D46457C4040000010101112FC14103E
:100710001010F8171210000000018141310F010183
:100720000101FF0101010100101010FF9050988895
:1007300088E98E88889888000242817F00404026A0
:1007400025180816316020008040F02C4320980FB7
:100750000AE80888281C080000007F00100C03210C
:10076000403F0000031C08000000E24242424242B7
:100770004242427E0000000000003F202020202056
:1007800020202020203C10002030AC63100040428C
:100790002222121A2642C0002223221212002021F5
:1007A00021213F212121200000020202020202FE3B
:1007B0002262C28202030200000000000000007FEB
:1007C000000001000000000011241FBECFE5D4E0AE
:1007D000DEBFCDBF10E0A0E6B0E0EAE0FDE002C081
:1007E00005900D92A036B107D9F710E0A0E6B0E071
:1007F00001C01D92A836B107E1F78DD185C200CCAA
:10080000982F80E58DB9A998662311F0AC9A01C0A4
:10081000AC989FB9779BFECF089560E081E2F0DF4E
:1008200060E080ECEDDF60E080E2EADF60E08CE039
:10083000E7DFA99A08951F93182F862F60E0806440
:10084000DFDF60E0812F8068DBDFA99A1F910895C8
:100850000F931F9360E080E0EEDF00E009C061E0ED
:1008600080E0CEDF1F5F1435D1F70F5F063011F047
:1008700010E0F5CFA99A1F910F9108951F93CF9380
:10088000DF93142F880F880F880FD5DF86E0189F1D
:10089000E0011124C05FDE4F10E0FE01849161E0B1
:1008A000AFDF1F5F21961630C1F761E080E0A8DF5F
:1008B00061E080E0A5DFDF91CF911F910895DF9285
:1008C000EF92FF920F931F93CF93DF93F62E142F87
:1008D000992723E0880F991F2A95E1F7D82EABDFDF
:1008E000012F112784E0000F111F8A95E1F7E8011D
:1008F000C85CDC4FEE24FE01849161E081DFE3946B
:100900002196F8E0EF16B9F7F3946F2D8D2D93DF54
:10091000E801C05CDC4FFE01849161E071DFE3948B
:100920002196F0E1EF16B9F7A99ADF91CF911F91C7
:100930000F91FF90EF90DF900895DF92EF92FF927A
:100940000F931F93CF93DF93F62E142F992743E035
:10095000880F991F4A95E1F7D82E6DDF012F1127D7
:1009600035E0000F111F3A95E1F7E801C85DD94F56
:10097000EE24FE01849161E043DFE3942196F0E1EF
:10098000EF16B9F7F3946F2D8D2D55DFE801C85C94
:10099000D94FFE01849161E033DFE3942196F0E2C8
:1009A000EF16B9F7A99ADF91CF911F910F91FF90A0
:1009B000EF90DF900895282F80916200882309F03E
:1009C0005BC0293569F02A3518F42231A9F408C032
:1009D000263651F0203F81F481E08093620054C0BC
:1009E00081E08093630050C01092640080916700A2
:1009F00082608093670048C080916100803110F070
:100A000010926100809163008823A1F4E0E0F0E09F
:100A1000CF01EA5DFF4F3491321729F0FC01329685
:100A2000E837F105A9F73217A1F4895D9F4FFC0162
:100A3000949115C0E0E0F0E0CF01E656FF4F34910D
:100A4000321729F0FC013296E837F105A9F7321781
:100A500011F090E00BC085569F4FFC01949180915E
:100A600067008260809367009093640080916100CA
:100A70008F5F8093610009C010926200223111F0F3
:100A8000293511F41092630090E0892F9927089579
:100A90008091670080FF0AC0809166008CDF8091A2
:100AA00067008E7F80936700789408957894089506
:100AB0001F920F920FB60F9211248F939F939091D4
:100AC0006000892F8150883050F4809165008695B0
:100AD00080936500849B03C0806880936500892FA4
:100AE0008F5F80936000839BFECF8B3068F0109205
:100AF000600080916700816080936700809165004D
:100B000080936600109265009F918F910F900FBEA9
:100B10000F901F901895CAE5D4E0DEBFCDBF85E0E9
:100B2000FE01319611928A95E9F786E184BB8AE34A
:100B300087BB11BAAA9880E197E20197F1F7AA9AC8
:100B40006CDE86DEC49888E190E02FE00FB6F89462
:100B5000A89581BD0FBE21BD88E085BF80E88BBF11
:100B6000789476DE88249924EE24FF24AA24BB24DA
:100B700061E0662E712C07C0370188249924EE2489
:100B8000FF24AA24BB2444245524A89581DF809106
:100B9000670081FFFACF809167008D7F80936700A7
:100BA00040916400842F80518A3070F5242F3327C0
:100BB00085010F5F1F4F4114510489F48AE090E0D2
:100BC000B401689F4001699F900C789F900C11249C
:100BD000820E931E80EF9FEF880E991E10C08AE050
:100BE00090E0F701E89F7001E99FF00CF89FF00C8E
:100BF0001124E20EF31E60EF7FEFE60EF71E60E0B9
:100C00008A2D3CDE5801C1CF4D3031F04B3021F000
:100C10004A3011F0403159F41BDE80916400682E97
:100C20007724AA24BB2451E0452E512CAECF4D3160
:100C300009F051C07DE06716710421F46401CE18FB
:100C4000DF081CC08BE06816710421F46401CE0C2F
:100C5000DF1C14C09AE06916710441F48E9C600197
:100C60008F9CD00C9E9CD00C112408C0E0E16E1625
:100C7000710421F4C401B70133D06B01EE24FF24C9
:100C8000FE013196C114D10491F0C6016AE070E012
:100C900027D0805F8193C6016AE070E021D06B01AC
:100CA0000894E11CF11C65E0E616F10459F7D0DD6B
:100CB00087015E010894A11CB11C06C0F501419199
:100CC0005F0160E0802FDADD01501040FFEF0F3F41
:100CD0001F07A1F751CF442309F057CFB9DD4DCFFE
:100CE000AA1BBB1B51E107C0AA1FBB1FA617B70752
:100CF00010F0A61BB70B881F991F5A95A9F780956E
:0A0D00009095BC01CD010895FFCFCE
:00000001FF
